{
  "_format": "hh-sol-artifact-1",
  "contractName": "Lock",
  "sourceName": "contracts/Lock.sol",
  "abi": [
    {
      "anonymous": false,
      "inputs": [
        {
          "indexed": true,
          "internalType": "address",
          "name": "user",
          "type": "address"
        },
        {
          "indexed": false,
          "internalType": "uint256",
          "name": "amount",
          "type": "uint256"
        },
        {
          "indexed": false,
          "internalType": "uint256",
          "name": "unlockTime",
          "type": "uint256"
        }
      ],
      "name": "TokenLocked",
      "type": "event"
    },
    {
      "anonymous": false,
      "inputs": [
        {
          "indexed": true,
          "internalType": "address",
          "name": "user",
          "type": "address"
        },
        {
          "indexed": false,
          "internalType": "uint256",
          "name": "amount",
          "type": "uint256"
        }
      ],
      "name": "TokenUnlocked",
      "type": "event"
    },
    {
      "inputs": [],
      "name": "getLockInfo",
      "outputs": [
        {
          "components": [
            {
              "internalType": "uint256",
              "name": "amount",
              "type": "uint256"
            },
            {
              "internalType": "uint256",
              "name": "unlockTime",
              "type": "uint256"
            }
          ],
          "internalType": "struct Lock.LockInfo",
          "name": "",
          "type": "tuple"
        }
      ],
      "stateMutability": "view",
      "type": "function"
    },
    {
      "inputs": [
        {
          "internalType": "uint256",
          "name": "_minutes",
          "type": "uint256"
        }
      ],
      "name": "lockTokens",
      "outputs": [],
      "stateMutability": "payable",
      "type": "function"
    },
    {
      "inputs": [],
      "name": "unlock",
      "outputs": [],
      "stateMutability": "nonpayable",
      "type": "function"
    }
  ],
  "bytecode": "0x6080604052348015600f57600080fd5b5061047f8061001f6000396000f3fe6080604052600436106100345760003560e01c80636e27d88914610039578063a69df4b51461004e578063b0426a3f14610063575b600080fd5b61004c6100473660046103ea565b6100c2565b005b34801561005a57600080fd5b5061004c610259565b34801561006f57600080fd5b506040805180820182526000808252602091820181905233815280825282902082518084019093528054835260010154908201526040805182518152602092830151928101929092520160405180910390f35b6000811161012a5760405162461bcd60e51b815260206004820152602a60248201527f4c6f636b20706572696f64206d7573742062652067726561746572207468616e6044820152692030206d696e7574657360b01b60648201526084015b60405180910390fd5b600034116101725760405162461bcd60e51b81526020600482015260156024820152744d757374206c6f636b20736f6d6520746f6b656e7360581b6044820152606401610121565b33600090815260208190526040902054156101cf5760405162461bcd60e51b815260206004820152601a60248201527f416c72656164792068617665206c6f636b656420746f6b656e730000000000006044820152606401610121565b60006101dc82603c610419565b905060006101ea8242610436565b60408051808201825234808252602080830185815233600081815280845286902094518555905160019094019390935583519182528101849052929350917f355f10f70d87fa96080456623e394dda4d29fed618766631109fcffaaf4460a591015b60405180910390a2505050565b336000908152602081815260409182902082518084019093528054808452600190910154918301919091526102c35760405162461bcd60e51b815260206004820152601060248201526f139bc81d1bdad95b9cc81b1bd8dad95960821b6044820152606401610121565b80602001514210156103175760405162461bcd60e51b815260206004820152601760248201527f546f6b656e7320617265207374696c6c206c6f636b65640000000000000000006044820152606401610121565b8051336000818152602081905260408082208281556001018290555190919083908381818185875af1925050503d8060008114610370576040519150601f19603f3d011682016040523d82523d6000602084013e610375565b606091505b50509050806103b85760405162461bcd60e51b815260206004820152600f60248201526e151c985b9cd9995c8819985a5b1959608a1b6044820152606401610121565b60405182815233907f613edbda9d1e6bda8af8e869a973f88cccf93854a11f351589038de07e1ab4e39060200161024c565b6000602082840312156103fc57600080fd5b5035919050565b634e487b7160e01b600052601160045260246000fd5b808202811582820484141761043057610430610403565b92915050565b808201808211156104305761043061040356fea2646970667358221220e444d3b71b721a21015af1c7daacc0999859afa47bc5895410be7d22539a702c64736f6c634300081c0033",
  "linkReferences": {},
  "deployedLinkReferences": {}
}