{
  "_format": "hh-sol-artifact-1",
  "contractName": "Lock",
  "sourceName": "contracts/Lock.sol",
  "abi": [
    {
      "anonymous": false,
      "inputs": [
        {
          "indexed": true,
          "internalType": "address",
          "name": "user",
          "type": "address"
        },
        {
          "indexed": false,
          "internalType": "uint256",
          "name": "amount",
          "type": "uint256"
        },
        {
          "indexed": false,
          "internalType": "uint256",
          "name": "unlockTime",
          "type": "uint256"
        }
      ],
      "name": "TokenLocked",
      "type": "event"
    },
    {
      "anonymous": false,
      "inputs": [
        {
          "indexed": true,
          "internalType": "address",
          "name": "user",
          "type": "address"
        },
        {
          "indexed": false,
          "internalType": "uint256",
          "name": "amount",
          "type": "uint256"
        }
      ],
      "name": "TokenUnlocked",
      "type": "event"
    },
    {
      "inputs": [
        {
          "internalType": "uint256",
          "name": "_minutes",
          "type": "uint256"
        }
      ],
      "name": "lockTokens",
      "outputs": [],
      "stateMutability": "payable",
      "type": "function"
    },
    {
      "inputs": [],
      "name": "unlock",
      "outputs": [],
      "stateMutability": "nonpayable",
      "type": "function"
    }
  ],
  "bytecode": "0x6080604052348015600f57600080fd5b506104158061001f6000396000f3fe6080604052600436106100295760003560e01c80636e27d8891461002e578063a69df4b514610043575b600080fd5b61004161003c366004610380565b610058565b005b34801561004f57600080fd5b506100416101ef565b600081116100c05760405162461bcd60e51b815260206004820152602a60248201527f4c6f636b20706572696f64206d7573742062652067726561746572207468616e6044820152692030206d696e7574657360b01b60648201526084015b60405180910390fd5b600034116101085760405162461bcd60e51b81526020600482015260156024820152744d757374206c6f636b20736f6d6520746f6b656e7360581b60448201526064016100b7565b33600090815260208190526040902054156101655760405162461bcd60e51b815260206004820152601a60248201527f416c72656164792068617665206c6f636b656420746f6b656e7300000000000060448201526064016100b7565b600061017282603c6103af565b9050600061018082426103cc565b60408051808201825234808252602080830185815233600081815280845286902094518555905160019094019390935583519182528101849052929350917f355f10f70d87fa96080456623e394dda4d29fed618766631109fcffaaf4460a591015b60405180910390a2505050565b336000908152602081815260409182902082518084019093528054808452600190910154918301919091526102595760405162461bcd60e51b815260206004820152601060248201526f139bc81d1bdad95b9cc81b1bd8dad95960821b60448201526064016100b7565b80602001514210156102ad5760405162461bcd60e51b815260206004820152601760248201527f546f6b656e7320617265207374696c6c206c6f636b656400000000000000000060448201526064016100b7565b8051336000818152602081905260408082208281556001018290555190919083908381818185875af1925050503d8060008114610306576040519150601f19603f3d011682016040523d82523d6000602084013e61030b565b606091505b505090508061034e5760405162461bcd60e51b815260206004820152600f60248201526e151c985b9cd9995c8819985a5b1959608a1b60448201526064016100b7565b60405182815233907f613edbda9d1e6bda8af8e869a973f88cccf93854a11f351589038de07e1ab4e3906020016101e2565b60006020828403121561039257600080fd5b5035919050565b634e487b7160e01b600052601160045260246000fd5b80820281158282048414176103c6576103c6610399565b92915050565b808201808211156103c6576103c661039956fea264697066735822122046b84afef9516b6650064931c25e64b0bb7cab279cb007f82269ea5713d4d25164736f6c634300081c0033",
  "linkReferences": {},
  "deployedLinkReferences": {}
}